101 04200001312345678981107291600A094101US BANK NA             TEST COMPANY                   5225TEST COMPANY                       11234567898PPDTEST BUYS 110801110801   1042000010000001627021200025998412345        0011900000OA313          AYDEN DERS              0098765434200001627021200025998412345        0009900000OA235          DYLAN HUNTER            0098765434200001627021200025998412345        0015100000OA357          COLTON LOWE             0098765434200001627021200025998412345        0026600000OA264          ISAIAH CARPENTER        0098765434200001627021200025998412345        0025500000OA363          COOPER BARNETT          0098765434200001627021200025998412345        0022800000OA298          KATHERINE GRAVES        0098765434200001627021200025998412345        0016100000OA332          JORDAN FRANKLIN         0098765434200001627021200025998412345        0022400000OA270          JACOB SIMPSON           0098765434200001627021200025998412345        0008900000OA268          ADAM WILLIS             0098765434200001627021200025998412345        0026600000OA354          ISAIAH CARPENTER        0098765434200001627021200025998412345        0026600000OA333          ISAIAH CARPENTER        0098765434200001627021200025998412345        0029700000OA250          JOSE JORDAN             0098765434200001627021200025998412345        0026900000OA300          JULIAN PERKINS          0098765434200001627021200025998412345        0029000000OA359          JACK GAS                0098765434200001627021200025998412345        0029900000OA281          SOFIA WATSON            0098765434200001627021200025998412345        0023800000OA316          ARIANNA KING            0098765434200001627021200025998412345        0029400000OA292          AYDEN SIMPSON           0098765434200001627021200025998412345        0024700000OA319          SOPHIE HENRY            0098765434200001627021200025998412345        0005900000OA267          MAKAYLA TERRY           0098765434200001627021200025998412345        0016100000OA257          JORDAN FRANKLIN         0098765434200001627021200025998412345        0016600000OA349          JASMINE CARTER          0098765434200001627021200025998412345        0015800000OA352          JACOB LEE               0098765434200001627021200025998412345        0022900000OA233          LIAM RTINEZ             0098765434200001627021200025998412345        0018200000OA283          LILY ROBERTSON          0098765434200001627021200025998412345        0028200000OA360          MORGAN NELSON           0098765434200001627021200025998412345        0018700000OA345          LUCAS THOMPSON          0098765434200001627021200025998412345        0022800000OA368          NOAH                    0098765434200001627021200025998412345        0007600000OA340          ARIANNA LONG            0098765434200001627021200025998412345        0029000000OA338          JACK GAS                0098765434200001627021200025998412345        0020700000OA272          MORGAN FOX              0098765434200001627021200025998412345        0025500000OA342          COOPER BARNETT          0098765434200001627021200025998412345        0018500000OA224          JESSICA SILVA           0098765434200001627021200025998412345        0007800000OA273          JASMINE CARTER          0098765434200001627021200025998412345        0011700000OA299          ISABELLE ERRY           0098765434200001627021200025998412345        0006300000OA263          ZACHARY MEDINA          0098765434200001627021200025998412345        0001800000OA266          MATTHEW ALLEN           0098765434200001627021200025998412345        0015000000OA312          BROOKE SUTTON           0098765434200001627021200025998412345        0006600000OA242          ABIGAIL EVANS           0098765434200001627021200025998412345        0028000000OA304          ISAAC JORDAN            0098765434200001627021200025998412345        0007800000OA269          JUAN GILBERT            0098765434200001627021200025998412345        0020800000OA249          KEVIN CASTILLO          0098765434200001627021200025998412345        0010600000OA311          EVAN HARVEY             0098765434200001627021200025998412345        0019500000OA318          JESUS BRADLEY           0098765434200001627021200025998412345        0008100000OA260          MARIAH HERNANDEZ        0098765434200001627021200025998412345        0007600000OA361          ARIANNA LONG            0098765434200001627021200025998412345        0003700000OA265          ARIANNA BISHOP          0098765434200001627021200025998412345        0005900000OA254          CARLOS WILLIS           0098765434200001627021200025998412345        0025800000OA337          ISABELLA GREGORY        0098765434200001627021200025998412345        0011600000OA307          ALLISON SUTTON          0098765434200001627021200025998412345        0016200000OA290          COOPER LEZ              0098765434200001627021200025998412345        0010000000OA335          SOPHIA BAILEY           0098765434200001627021200025998412345        0017700000OA288          CHRISTIAN PEARSON       0098765434200001627021200025998412345        0028000000OA367          ISAAC JORDAN            0098765434200001627021200025998412345        0026100000OA244          LUKE CRAIG              0098765434200001627021200025998412345        0008300000OA278          GRACE HOWARD            0098765434200001627021200025998412345        0020300000OA228          SOPHIE NICHOLS          0098765434200001627021200025998412345        0027400000OA275          ALEXA WALKER            0098765434200001627021200025998412345        0006700000OA310          ADRIAN HOLLAND          0098765434200001627021200025998412345        0015400000OA314          GABRIEL MEDINA          0098765434200001627021200025998412345        0021600000OA344          KEVIN WOOD              0098765434200001627021200025998412345        0004700000OA262          KADEN POWELL            0098765434200001627021200025998412345        0009300000OA232          AVA GIBSON              0098765434200001627021200025998412345        0018700000OA303          LUCAS THOMPSON          0098765434200001627021200025998412345        0008500000OA308          ANGEL MCKINNEY          0098765434200001627021200025998412345        0002100000OA274          SEAN BRADLEY            0098765434200001627021200025998412345        0019100000OA245          IAN HOLLAND             0098765434200001627021200025998412345        0017500000OA323          ISABELLE FOX            0098765434200001627021200025998412345        0027400000OA355          ALEXA WALKER            0098765434200001627021200025998412345        0026100000OA226          JASON ANDERSON          0098765434200001627021200025998412345        0008600000OA243          GIANNA RUIZ             0098765434200001627021200025998412345        0011900000OA348          AYDEN DERS              0098765434200001627021200025998412345        0015100000OA336          COLTON LOWE             0098765434200001627021200025998412345        0002200000OA239          ARIANA THOMPSON         0098765434200001627021200025998412345        0025500000OA294          COOPER BARNETT          0098765434200001627021200025998412345        0028400000OA325          CAMILA HOLMES           0098765434200001627021200025998412345        0025800000OA358          ISABELLA GREGORY        0098765434200001627021200025998412345        0025800000OA259          HUNTER MILLS            0098765434200001627021200025998412345        0010000000OA279          SOPHIA BAILEY           0098765434200001627021200025998412345        0025600000OA293          ANGEL ORTIZ             0098765434200001627021200025998412345        0004600000OA252          JOSIAH GRIFFIN          0098765434200001627021200025998412345        0011200000OA364          SEBASTIAN MCDONALD      0098765434200001627021200025998412345        0022800000OA309          NOAH                    0098765434200001627021200025998412345        0020500000OA324          AUBREY GRANT            0098765434200001627021200025998412345        0022800000OA256          KEVIN PERKINS           0098765434200001627021200025998412345        0014600000OA238          HENRY DAY               0098765434200001627021200025998412345        0011200000OA297          SEBASTIAN MCDONALD      0098765434200001627021200025998412345        0021100000OA282          CARLOS GREGORY          0098765434200001627021200025998412345        0009600000OA350          JACOB MORRISON          0098765434200001627021200025998412345        0009000000OA291          NATALIE JACOBS          0098765434200001627021200025998412345        0025800000OA285          ISABELLA GREGORY        0098765434200001627021200025998412345        0028200000OA339          MORGAN NELSON           0098765434200001627021200025998412345        0016100000OA353          JORDAN FRANKLIN         0098765434200001627021200025998412345        0016400000OA322          ELI BOWMAN              0098765434200001627021200025998412345        0003700000OA253          ANGEL SMITH             0098765434200001627021200025998412345        0026300000OA247          DIEGO WASHINGTON        0098765434200001627021200025998412345        0001900000OA328          ANGEL BROOKS            0098765434200001627021200025998412345        0015100000OA236          BAILEY PEREZ            0098765434200001627021200025998412345        0021600000OA301          KEVIN WOOD              0098765434200001627021200025998412345        0015800000OA331          JACOB LEE               0098765434200001627021200025998412345        0011200000OA343          SEBASTIAN MCDONALD      0098765434200001627021200025998412345        0026100000OA330          LUKE CRAIG              0098765434200001627021200025998412345        0016000000OA280          ABIGAIL ELTON           0098765434200001627021200025998412345        0010000000OA356          SOPHIA BAILEY           0098765434200001627021200025998412345        0029400000OA251          JAYDEN LYNCH            0098765434200001627021200025998412345        0011600000OA321          DESTINY MCDANIEL        0098765434200001627021200025998412345        0016600000OA315          JASMINE CARTER          0098765434200001627021200025998412345        0004000000OA306          MARY MARSHALL           0098765434200001627021200025998412345        0025600000OA362          ANGEL ORTIZ             0098765434200001627021200025998412345        0020800000OA258          SYDNEY REYES            0098765434200001627021200025998412345        0022800000OA347          NOAH                    0098765434200001627021200025998412345        0006100000OA248          SYDNEY BUTLER           0098765434200001627021200025998412345        0015500000OA327          SOFIA GOMEZ             0098765434200001627021200025998412345        0017100000OA240          MARIA MITCHELL          0098765434200001627021200025998412345        0029500000OA241          MICHAEL WALLACE         0098765434200001627021200025998412345        0015100000OA305          HAYDEN DES              0098765434200001627021200025998412345        0006100000OA317          CAMILA T                0098765434200001627021200025998412345        0025600000OA341          ANGEL ORTIZ             0098765434200001627021200025998412345        0003600000OA329          LILY COLE               0098765434200001627021200025998412345        0012700000OA229          BRANDON WILSON          0098765434200001627021200025998412345        0018300000OA230          CONNOR GARDNER          0098765434200001627021200025998412345        0028200000OA287          MORGAN NELSON           0098765434200001627021200025998412345        0021600000OA365          KEVIN WOOD              0098765434200001627021200025998412345        0030000000OA326          ISABEL WEBB             0098765434200001627021200025998412345        0025600000OA261          MATTHEW ROSE            0098765434200001627021200025998412345        0029000000OA286          JACK GAS                0098765434200001627021200025998412345        0027400000OA302          JOSEPH DES              0098765434200001627021200025998412345        0013500000OA227          SARA NICHOLS            0098765434200001627021200025998412345        0027400000OA334          ALEXA WALKER            0098765434200001627021200025998412345        0007900000OA225          AIDEN MILES             0098765434200001627021200025998412345        0018700000OA366          LUCAS THOMPSON          0098765434200001627021200025998412345        0018000000OA234          CONNOR WILLIAMS         0098765434200001627021200025998412345        0009500000OA276          GABRIEL JENSEN          0098765434200001627021200025998412345        0015000000OA295          JAMES NEWMAN            0098765434200001627021200025998412345        0009600000OA320          JACOB MORRISON          0098765434200001627021200025998412345        0015800000OA255          JACOB LEE               0098765434200001627021200025998412345        0015100000OA284          COLTON LOWE             0098765434200001627021200025998412345        0013000000OA271          JUAN NICHOLS            0098765434200001627021200025998412345        0008200000OA237          ZOEY DAVIDSON           0098765434200001627021200025998412345        0013100000OA296          MARIA FLORES            0098765434200001627021200025998412345        0014000000OA277          SYDNEY TUCKER           0098765434200001627021200025998412345        0007600000OA289          ARIANNA LONG            0098765434200001627021200025998412345        0028000000OA346          ISAAC JORDAN            0098765434200001627021200025998412345        0005900000OA246          JESSICA WALKER          0098765434200001627021200025998412345        0008700000OA231          ELIZABETH COLE          0098765434200001627021200025998412345        0026100000OA351          LUKE CRAIG              0098765434200001822500014503074002900000247980000000000000001234567898                         0420000100000015220TEST COMPANY                       11234567898PPDVERIFY    110801110801   1042000010000003622021200025998412345        0000001800OA370          CHASE BLACK             0098765434200001622021200025998412345        0000001300OA379          ANDREA BUTLER           0098765434200001622021200025998412345        0000000700OA371          BLAKE REYES             0098765434200001622021200025998412345        0000000300OA385          CONNOR MEDINA           0098765434200001622021200025998412345        0000001100OA369          CHASE BLACK             0098765434200001622021200025998412345        0000001300OA384          BRANDON ARMSTRONG       0098765434200001622021200025998412345        0000000300OA375          LUIS MEYER              0098765434200001622021200025998412345        0000001300OA374          BLAKE HICKS             0098765434200001622021200025998412345        0000000400OA372          BLAKE REYES             0098765434200001622021200025998412345        0000000100OA377          DOMINIC RAY             0098765434200001622021200025998412345        0000001900OA382          JONATHAN MORALES        0098765434200001622021200025998412345        0000000400OA381          JONATHAN MORALES        0098765434200001622021200025998412345        0000000200OA378          DOMINIC RAY             0098765434200001622021200025998412345        0000001100OA376          LUIS MEYER              0098765434200001622021200025998412345        0000002000OA373          BLAKE HICKS             0098765434200001622021200025998412345        0000000200OA386          CONNOR MEDINA           0098765434200001622021200025998412345        0000001600OA380          ANDREA BUTLER           0098765434200001622021200025998412345        0000001200OA383          BRANDON ARMSTRONG       0098765434200001822000001800381600360000000000000000000001721234567898                         0420000100000035220TEST COMPANY                       11234567898PPDTEST SALES110801110801   1042000010000002822000000000000000000000000000000000000000001234567898                         0420000100000025225                FV3               CA1234567898IATTEST BUYS USDCAD110802   10420000100000046270910502340                0012200000998412345                              1098765430420000710WEB                                        DIEGO MAY                                0000001711TEST COMPANY                       123 EASY STREET                                  0000001712ANYTOWN*KS\                        US*12345\                                        0000001713U.S. BANK                          0104200001                          US           0000001714CENTRAL                            01021200025                         CA           0000001715OA391          PO Box 450                                                           0000001716Metropolis*ON\                     CA*01234\                                        00000016270910502340                0004000000998412345                              1098765430420000710WEB                                        JOSHUA SILVA                             0000002711TEST COMPANY                       123 EASY STREET                                  0000002712ANYTOWN*KS\                        US*12345\                                        0000002713U.S. BANK                          0104200001                          US           0000002714CENTRAL                            01021200025                         CA           0000002715OA389          PO Box 230                                                           0000002716Metropolis*ON\                     CA*01234\                                        00000026270910502340                0012200000998412345                              1098765430420000710WEB                                        DIEGO MAY                                0000003711TEST COMPANY                       123 EASY STREET                                  0000003712ANYTOWN*KS\                        US*12345\                                        0000003713U.S. BANK                          0104200001                          US           0000003714CENTRAL                            01021200025                         CA           0000003715OA398          PO Box 450                                                           0000003716Metropolis*ON\                     CA*01234\                                        00000036270910502340                0026800000998412345                              1098765430420000710WEB                                        ZOEY PAYNE                               0000004711TEST COMPANY                       123 EASY STREET                                  0000004712ANYTOWN*KS\                        US*12345\                                        0000004713U.S. BANK                          0104200001                          US           0000004714CENTRAL                            01021200025                         CA           0000004715OA392          PO Box 150                                                           0000004716Metropolis*ON\                     CA*01234\                                        00000046270910502340                0012200000998412345                              1098765430420000710WEB                                        DIEGO MAY                                0000005711TEST COMPANY                       123 EASY STREET                                  0000005712ANYTOWN*KS\                        US*12345\                                        0000005713U.S. BANK                          0104200001                          US           0000005714CENTRAL                            01021200025                         CA           0000005715OA395          PO Box 450                                                           0000005716Metropolis*ON\                     CA*01234\                                        00000056270910502340                0014800000998412345                              1098765430420000710WEB                                        DYLAN RAMOS                              0000006711TEST COMPANY                       123 EASY STREET                                  0000006712ANYTOWN*KS\                        US*12345\                                        0000006713U.S. BANK                          0104200001                          US           0000006714CENTRAL                            01021200025                         CA           0000006715OA390          PO Box 800                                                           0000006716Metropolis*ON\                     CA*01234\                                        00000066270910502340                0026800000998412345                              1098765430420000710WEB                                        ZOEY PAYNE                               0000007711TEST COMPANY                       123 EASY STREET                                  0000007712ANYTOWN*KS\                        US*12345\                                        0000007713U.S. BANK                          0104200001                          US           0000007714CENTRAL                            01021200025                         CA           0000007715OA396          PO Box 150                                                           0000007716Metropolis*ON\                     CA*01234\                                        00000076270910502340                0020300000998412345                              1098765430420000710WEB                                        JAMES ROMERO                             0000008711TEST COMPANY                       123 EASY STREET                                  0000008712ANYTOWN*KS\                        US*12345\                                        0000008713U.S. BANK                          0104200001                          US           0000008714CENTRAL                            01021200025                         CA           0000008715OA393          PO Box 810                                                           0000008716Metropolis*ON\                     CA*01234\                                        00000086270910502340                0008700000998412345                              1098765430420000710WEB                                        KEVIN LARSON                             0000009711TEST COMPANY                       123 EASY STREET                                  0000009712ANYTOWN*KS\                        US*12345\                                        0000009713U.S. BANK                          0104200001                          US           0000009714CENTRAL                            01021200025                         CA           0000009715OA387          PO Box 340                                                           0000009716Metropolis*ON\                     CA*01234\                                        00000096270910502340                0008700000998412345                              1098765430420000710WEB                                        KEVIN LARSON                             0000010711TEST COMPANY                       123 EASY STREET                                  0000010712ANYTOWN*KS\                        US*12345\                                        0000010713U.S. BANK                          0104200001                          US           0000010714CENTRAL                            01021200025                         CA           0000010715OA394          PO Box 340                                                           0000010716Metropolis*ON\                     CA*01234\                                        00000106270910502340                0025100000998412345                              1098765430420000710WEB                                        SEBASTIAN NEWMAN                         0000011711TEST COMPANY                       123 EASY STREET                                  0000011712ANYTOWN*KS\                        US*12345\                                        0000011713U.S. BANK                          0104200001                          US           0000011714CENTRAL                            01021200025                         CA           0000011715OA388          PO Box 600                                                           0000011716Metropolis*ON\                     CA*01234\                                        00000116270910502340                0026800000998412345                              1098765430420000710WEB                                        ZOEY PAYNE                               0000012711TEST COMPANY                       123 EASY STREET                                  0000012712ANYTOWN*KS\                        US*12345\                                        0000012713U.S. BANK                          0104200001                          US           0000012714CENTRAL                            01021200025                         CA           0000012715OA399          PO Box 150                                                           0000012716Metropolis*ON\                     CA*01234\                                        00000126270910502340                0008700000998412345                              1098765430420000710WEB                                        KEVIN LARSON                             0000013711TEST COMPANY                       123 EASY STREET                                  0000013712ANYTOWN*KS\                        US*12345\                                        0000013713U.S. BANK                          0104200001                          US           0000013714CENTRAL                            01021200025                         CA           0000013715OA397          PO Box 340                                                           0000013716Metropolis*ON\                     CA*01234\                                        0000013822500010401183652990000020730000000000000001234567898                         0420000100000045220                FV3               CA1234567898IATVERIFY    USDCAD110802   10420000100000056220910502340                0000001200998412345                              1098765430420000710WEB                                        LEAH BRYANT                              0000014711TEST COMPANY                       123 EASY STREET                                  0000014712ANYTOWN*KS\                        US*12345\                                        0000014713U.S. BANK                          0104200001                          US           0000014714CENTRAL                            01021200025                         CA           0000014715OA400          PO Box 410                                                           0000014716Metropolis*ON\                     CA*01234\                                        00000146220910502340                0000000100998412345                              1098765430420000710WEB                                        LEAH BRYANT                              0000015711TEST COMPANY                       123 EASY STREET                                  0000015712ANYTOWN*KS\                        US*12345\                                        0000015713U.S. BANK                          0104200001                          US           0000015714CENTRAL                            01021200025                         CA           0000015715OA401          PO Box 410                                                           0000015716Metropolis*ON\                     CA*01234\                                        0000015822000001600182100460000000000000000000000131234567898                         0420000100000059000005000030000002830482135671000026871000000000000185                                       